:020000040800F2
:100000000080012055160008A116000851020008C2
:10001000590200086102000869020008000000009F
:10002000000000000000000000000000A13D0008EA
:10003000A1160008000000005D3D00089D3C00087E
:10004000A1160008A1160008A1160008A1160008B4
:10005000A1160008A1160008A1160008A1160008A4
:10006000A1160008A1160008A1160008A116000894
:10007000A1160008A1160008A1160008A116000884
:10008000A1160008A1160008A11600080000000033
:10009000000000000000000000000000A1160008A1
:1000A000A1160008A1160008A1160008A116000854
:1000B000A1160008A1160008A1160008A116000844
:1000C000A1160008A1160008A1160008A116000834
:1000D000A1160008A1160008A116000800000000E3
:1000E000A1160008A1160008A116000800000000D3
:1000F000000000000000000000000000A116000841
:1001000000000000A1160008A1160008A1160008B2
:1001100000000000000000000000000000000000DF
:10012000A1160008A1160008A1160008A1160008D3
:10013000A116000800000000000000000000000000
:10014000000000000000000000000000A1160008F0
:10015000A1160008A1160008A1160008A1160008A3
:10016000A1160008A1160008000000000000000011
:10017000000000000000000000000000000000007F
:1001800000000000A11600080000000000000000B0
:10019000A116000810B5054C237833B9044B13B1F0
:1001A0000448AFF300800123237010BD70060020C7
:1001B00000000000F85B000808B5034B1BB10349C1
:1001C0000348AFF3008008BD000000007406002063
:1001D000F85B0008A3F5803A704700BF174B002B6F
:1001E00008BF134B9D46FFF7F5FF00218B460F46D6
:1001F0001348144A121A04F009FE0E4B002B00D0CB
:1002000098470D4B002B00D0984700200021040098
:100210000D000D48002802D00C48AFF3008004F018
:1002200059FD2000290003F073FC04F075FB00BFAA
:100230000000080000000000190E000800800120E6
:1002400070060020180A00200000000000000000D6
:100250004FF0100300F00CB84FF0200300F008B886
:100260004FF0300300F004B84FF0400300F000B846
:10027000EFF308804FF0040172460A4201D0EFF319
:1002800009809C46254B196802680A60043142685F
:100290000A60043182680A600431C2680A6004316D
:1002A000F0C147460F6004314F460F600431574696
:1002B0000F6004315F460F60043102690A60083143
:1002C00042690A60043182690A600431C2690A60C5
:1002D0000431034620334FF40076324200D0043319
:1002E00075464FF01006354200D148330C46103C9D
:1002F0002360EFF309820A600431EFF308820A6099
:10030000043172460A600431EFF314820A606046D9
:10031000024B196800F0C2FAFEE700009459000889
:1003200000207047036801221B69002118470368F9
:1003300000221B69114618476FF0150070470368CB
:100340001B69184703689B69184703689B6A18472D
:1003500000290CBF6FF01800002070470120704783
:100360006FF0150070476FF015007047704730B59B
:1003700091FAA1F391FAA1F1B3FA83F304685B0057
:100380000325B1FA81F105FA03F3490024EA0303D6
:100390008A401343036030BD7FB52B4B00220728F2
:1003A0004FD8DFE800F004121E2A364E4E4200926B
:1003B0001A6B264842F001021A631B6B03F001031B
:1003C0000093009B07B05DF804FB01921A6B204874
:1003D00042F002021A631B6B03F002030193019BBC
:1003E000F0E702921A6B1B4842F004021A631B6B7F
:1003F00003F004030293029BE4E703921A6B16488E
:1004000042F008021A631B6B03F008030393039B7B
:10041000D8E704921A6B114842F010021A631B6B62
:1004200003F010030493049BCCE705921A6B0C486D
:1004300042F080021A631B6B03F080030593059B57
:10044000C0E7084800F08EF9003802400000024082
:100450000004024000080240000C0240001002406C
:10046000001C0240B057000810B54FF470710446EC
:1004700004F00F0400F00EFF0120A04010BD0000AA
:100480004B1C70B504460E46018216D0C1F3031012
:10049000FFF782FF05463046FFF7E6FF238A074A4B
:1004A000656103F00F03206052F82330A36105F16A
:1004B00010031835C4E90255636070BDB05A0008D6
:1004C000B0F9100000F062BF0A46D0E905010AB990
:1004D000FFF74DBF0122FBE708B501F07FFE0020CA
:1004E00008BD000008B50A4B1B684BB100F088FE40
:1004F00000F074FE4FF47A72002304F08BF808BD0C
:10050000044B586A4FF47A73B0FBF3F0F7E700BF7F
:100510000C070020000C004083681A6843681A42E8
:1005200014BF01200020704703460122D3E84F0F7B
:10053000C3E8412FC0B20029F8D17047D0E84F3F3F
:10054000C0E8421FD8B2704700B589B000F07AF811
:10055000052101A800F026FA114E124D0424039B38
:10056000019A1A60304600F059FE019B049A1B0460
:100570001360304600F052FE013CF0D10424039B8E
:10058000019A1A60284600F049FE019B049A1B0458
:100590001360284600F042FE013CF0D1DEE700BFC8
:1005A000F0490200801A060007B5014600220190BA
:1005B000022000F063FB00F045F80199084604F0C2
:1005C000BEFE01990246022000F058FB03B05DF820
:1005D00004EB00F041B8000000B5A3B002460B46A2
:1005E00001A8842104F0E0FE832806D9074B1A688D
:1005F0001B79CDF883208DF88730002802DD01A813
:10060000FFF7D2FF23B05DF804FB00BFD15700080D
:100610000FB407B504A951F8040B0191FFF7DCFFF3
:1006200003B05DF804EB04B07047EFF31080C043F3
:1006300000F001007047EFF30580003818BF01207B
:100640007047000008B500F013F8024A1368013340
:10065000136008BD8C060020044A136823B1013BD7
:1006600013600BB900F016B8704700BF8C0600206D
:10067000EFF3108372B6054A117831B90449DB43B0
:1006800003F001030B7001231370704791060020E3
:1006900090060020034B00221A70034B1B7803B115
:1006A00062B67047910600209006002008B50B48FE
:1006B000FFF73AFF28B1FFF7C5FFBFF34F8F20BF09
:1006C000FDE7FFF7B8FF08B1FFF73EFFFFF7ADFF0B
:1006D0000028F9D0012004F01FF900BFD406002043
:1006E00070B51B4C8EB034EA200428BF04460D467A
:1006F00016460021282204A804F088FBCDE9014613
:100700000395FFF79FFF134A13680133012B136012
:1007100009D101AD0FCD104C0FC40FCD0FC40FCDBB
:100720000FC42B68236001AC0FCC0C4D0FC50FCC50
:100730000FC50FCC0FC523682B60094B1B6813B185
:10074000A5F130009847FFF787FF00200EB070BD7D
:100750000101FF8094060020A0060020D80600209A
:10076000980600200FB407B501210648CDF804E033
:10077000FFF7E4FE019A014610B90348FFF7B0FF06
:10078000FFF794FF9C0600200001FF8008B5044697
:100790000121064876461546FFF7D0FE20B93246BD
:1007A00029462046FFF79CFFFFF780FF9C060020AC
:1007B000F0B52C4E2C4F85B000243546214656F816
:1007C000042B38460134FFF723FF0D2CF6D1AB6C18
:1007D00002936B6C01932B6C244C0093D5E90E2390
:1007E000696B2348FFF714FF21682248FFF710FFC9
:1007F000E16AA26AA36AA06A266BE76B000CCDE9E6
:1008000001670090C3F307231B48D2B2FFF700FF34
:10081000A36A1E0603D5616B1848FFF7F9FEA36AA9
:10082000180403D5A16B1648FFF7F2FEEB6C19070D
:1008300012D51448FFF7ECFE2B6DDA070FD51248DE
:10084000FFF7E6FEEB6C5B074CBF1048104805B0A5
:10085000BDE8F040FFF7DCBE0E48FFF7D9FE0E48BA
:10086000EEE700BF70070020D657000800ED00E05B
:10087000E457000833580008415800089058000811
:100880009E580008AC580008BB580008EB580008F8
:10089000F7580008DB580008C858000813B504468C
:1008A0001548FFF7B5FE302C17D0402C1AD0202C5D
:1008B0001DD11248124CFFF7ABFE1248FFF7A8FEFD
:1008C000FFF776FF1048FFF7A3FE104A10490023F8
:1008D0000093D26B2046FFF759FF0E480E4CFFF7EE
:1008E00097FEEAE70D480E4CFFF792FEE5E70D484C
:1008F0000D4CFFF78DFEE0E7035900082C59000866
:100900003E01FF8059590008645900087007002013
:10091000835900083B5900083F01FF8044590008F3
:100920004001FF804F5900083D01FF8070B50E4621
:1009300004461546FFF7A4FD013609D020460021E4
:10094000FFF7C2FD29462046BDE87040FFF7B8BD5D
:1009500070BD38B5036804460D465AB1826813600D
:1009600020460121FFF7B0FD29462046BDE838406A
:10097000FFF7A6BDC2681B04F1E70022FFF7D6BF50
:1009800037B50D4604460192FFF77AFD013507D0D1
:10099000019A0021204603B0BDE83040FFF7D9BFDF
:1009A00003B030BD0022FFF7EBBF000008B501F037
:1009B000C3FB00F077FE01F0B1FB01F0BDFB024B81
:1009C00001221A6008BD00BF0C0700201FB5431CA0
:1009D00010D105B05DF804FB83420AD18968039009
:1009E00000F058FC0398002105B05DF804EB00F01E
:1009F000CDBC0C31B1F900305A1CEDD100230246B8
:100A0000009302481946FFF7C1FE00BF3001018084
:100A1000884207B502460AD0431C08D0013105D0F0
:100A20000023054800931946FFF7B0FE014608462B
:100A300003B05DF804FB00BF30010180B1F9003064
:100A40005A1C01D118467047834201D1486870474B
:100A50000C31F3E7421C13B504460AD0FFF7EEFF52
:100A6000431C06D100230448009322461946FFF791
:100A70008DFE02B010BD00BF300101806FF01C0080
:100A800070476FF0150070470120704700207047D5
:100A900070470000F8B5074E15460C468F18BC424B
:100AA00005D014F8011B304600F0C2FDF7E72846D8
:100AB000F8BD00BFC407002038B511F001048DB2A5
:100AC00005D0084800F0A6FC041E18BF0124EB0660
:100AD00005D5044800F0B4FC08B144F010042046E9
:100AE00038BD00BFC407002010B5044604F022F949
:100AF000204610BD10B50C462AB1044800F086FD12
:100B00002070012010BD1046FCE700BFC407002084
:100B100038B51D46074B0360074B1B68044633B9C5
:100B2000064800F0DDFC0548294600F0BFFC2046E1
:100B300038BD00BFA059000858070020C407002096
:100B40000020704700207047074A0849136818447E
:100B5000884289BF064B10600C224FF0FF308CBFDB
:100B60001A601846704700BF9C020020007C0120DC
:100B7000140A0020012070477047704708B5FFF73E
:100B8000FBFF08BD08B5FFF7F8FF08BD037803F0C9
:100B90000303012B09D0037803F00302012A04D0D8
:100BA00043F0020303700120704700207047037870
:100BB00023F0030343F00103037070473F2870B52F
:100BC00004462FDC184D55F820305A1C13D102284A
:100BD00011DCFFF7B7FF034658B92046FFF7B0FF17
:100BE000034630B9114E3378BFF35B8FDB0704D572
:100BF0000F4B45F82430184670BD3046FFF7C6FF4E
:100C00000028F5D04FF41653032202210848FFF7BD
:100C10007FFF3046FFF7CBFF064A07490448FFF73E
:100C2000A9FFE5E70023E6E79C010020100700206C
:100C30001407002098010020910A000838B50546E5
:100C4000FFF7BCFF0B4B002443F8254030B903F0FD
:100C50005DFE092303604FF0FF3038BD03685B6918
:100C60009847051E04DA03F051FE6D420560F2E775
:100C70002046F2E79C010020FFF7E0BF13B5CDE965
:100C80000021FFF79BFFDDE9002140B903F03EFEA4
:100C9000092303604FF0FF34204602B010BD036803
:100CA000DB689847041EF7DA03F030FE6442046004
:100CB000F0E708B5131E07DA03F028FE16230360D9
:100CC0004FF0FF33184608BDFCD0FFF7D7FF40EACE
:100CD000E073F7E713B5CDE90021FFF76FFFDDE91A
:100CE000002140B903F012FE092303604FF0FF34E6
:100CF000204602B010BD03689B689847041EF7DACF
:100D000003F004FE64420460F0E7002A08B503DB48
:100D1000BDE80840FFF7DEBF03F0F8FD16230360CF
:100D20004FF0FF3008BD13B5CDE90021FFF746FFB6
:100D3000DDE9002140B903F0E9FD092303604FF02C
:100D4000FF34204602B010BD03681B699847041E9B
:100D5000F7DA03F0DBFD64420460F0E7FFF7E3BF7E
:100D600010B5FFF72BFF30B903F0D0FD0923036066
:100D70004FF0FF3010BD03689B699847041E04DAEA
:100D800003F0C4FD64420460F2E70020F2E70000D3
:100D90000A4D08B52B680446986803F093FE2B684B
:100DA000D86803F08FFE0120FFF7DAFF0220FFF77B
:100DB000D7FF0CB1FFF7C8FBFEE700BFF805002026
:100DC0001FB5039003F0AEFF039A034620B90090CD
:100DD00001460348FFF7DAFC05B05DF804FB00BFED
:100DE0001F01018003F0A6BF70470000084B0949AE
:100DF00098684FF00053C21802F16042126843F83D
:100E0000042B8B42F7D1024B4FF000529A6070478F
:100E100000ED00E09401002008B5FFF7E7FFFFF7C1
:100E2000C5FD01F02FFAFFF7DFFF08BD2DE9F74FF1
:100E3000446894F83A100646002955D1016849687B
:100E400088477168096A814205464DD0206AE16889
:100E5000A6682562281A0140384886428C464FF021
:100E6000000E39D094F83BB0D4E90A5A0027A1FB10
:100E70000001BBF1000F46D0CBF1200801FA08F8C1
:100E800020FA0BFCABF1200E21FA0EFE4CEA080C06
:100E90004CEA0E0C2D1821FA0BFEABF120094AEB9F
:100EA000010ACBF120080EFA0BF10CFA09F941EA1C
:100EB00009012CFA08F80CFA0BF02B1A41EA080188
:100EC00000936AEB01030193DDE90023BB4208BFF5
:100ED000B2420CD2C4E90A23D4E90C0110EB0C0095
:100EE00041EB0E01C4E90C0103B0BDE8F08F009B9B
:100EF0001CF1010C4EF1000E9A1B019B63EB0703E2
:100F0000C4E90A23E8E732463B4603F083FB12EBD1
:100F1000050843EB0A09B94508BFB04584468E462B
:100F200002D2C4E90A89D7E710F1010C41F1000EA1
:100F3000B8EB060269EB0703E2E700BF40420F008F
:100F4000824206D98A420BD9884294BF00200120F0
:100F50007047884206D98A428CBF00200120704722
:100F600001207047002070472DE9F74FD0F804802A
:100F700098F83A300746002B40F0818098F83930D5
:100F8000002B7CD1FFF752FF7E683A6873680192AC
:100F9000002B66D0D6E90C01D3E90023994208BFA3
:100FA000904205D3019B5B6903B0BDE8F04F184741
:100FB000141A63EB0105D6E90623AB4208BFA2422F
:100FC000D6F8109006D3B2682E4B9A4219D1A1459B
:100FD00028BFA146326A019B9144F2681B6909EA65
:100FE00002021046019298473B685B689847019A55
:100FF0000146D8F82000FFF7A3FF00283FD03B6848
:10100000D1E796F83B30EBB1A3F1200CC3F12002FD
:1010100024FA02F204FA03F005FA03F104FA0CFCD4
:10102000194C41EA0C0111430019164A4FF0000413
:101030004FF0000344EB010103F0ECFA814528BFB7
:101040008146C7E71048A2FB04AB02FB05BB1AEBC5
:1010500000004FF000010B4A4FF000034BEB010181
:10106000EAE7D8F81030D8F82000D8F80C20184457
:10107000019B1B69104003B0BDE8F04F184703B057
:10108000BDE8F08F40420F003F420F002DE9F04FC6
:10109000436893F8382085B00546002A63D193F859
:1010A0003A30002B5FD103681B6898472B68DB69D7
:1010B000984703682BB92D4800931A461946FFF745
:1010C00065FB1F21012202FA01F4A3425FFA81FAB3
:1010D00002D00139F7D18A464668321F1C2A05D949
:1010E0000023234800931A461946E8E71C4614F1EA
:1010F000FF384FF000031F494FF0070743F1FF3956
:101100009740C1FB078922464046494603F082FAD0
:101110006B682A6803934FF00008C3E9008852689F
:10112000894683469047039B0122186202FA06F61D
:101130006B6800210020013EC3E90A01C3E90C01EC
:10114000C3E903672846C3E906B99C6083F83BA05E
:101150001A8783F83A80FFF769FE284605B0BDE894
:10116000F04FFFF701BF05B0BDE8F08F0E0104801E
:101170000501048040420F0070B50446FFF762FA93
:101180002368DB689847636893F83A201AB1BDE892
:101190007040FFF761BA012283F8392063685B6809
:1011A000A3B12046FFF742FE65686E68D5E90C01E1
:1011B000D6E90023994208BF904207D3F3686B60D9
:1011C0002B68002BEAD0B0689847E7E763680022F5
:1011D00083F839202046FFF7C7FED8E738B5044624
:1011E000FFF754FFFFF72EFA2046FFF71FFE636854
:1011F000D3E90C45FFF730FA2046294638BD704741
:1012000000487047F4590008024B1B680BB10248B4
:1012100018477047A0020020F4590008034B596A90
:101220005A6A521A8242FBD3704700BF000C00403A
:1012300030B591FAA1F391FAA1F1B3FA83F384687E
:101240005B000325B1FA81F105FA03F3490024EAB2
:1012500003038A401343836030BD30B591FAA1F394
:1012600091FAA1F1B3FA83F3C4685B000325B1FAE4
:1012700081F105FA03F3490024EA03038A4013438A
:10128000C36030BD012A02D0022A18BF0022FFF736
:10129000E4BF00002DE9F84300F00F023A4B1FFABB
:1012A00080F9C0F3031053F82270C1F3831801F0E2
:1012B00007060D46FFF770F8B8F10F0F0CBF0322B9
:1012C000424639460446FFF7B3FF022E28D0032ECC
:1012D00058D0711E4B424B4197FAA7F2B2FA82F2F4
:1012E00021685200032000FA02F221EA020197FA73
:1012F000A7F2B2FA82F252009340013E0B43012E54
:10130000236005D863682A074CBF3B43BB43636037
:10131000C5F3011239462046BDE8F843FFF7B2BFD6
:1013200019F0080FC5F3832217D03B0A93FAA3F1F3
:10133000B1FA81F1406A93FAA3F389004FF00F0CE0
:10134000B3FA83F30CFA01F19B0020EA010102FADF
:1013500003F30B4363620223BEE797FAA7F1B1FAE6
:1013600081F1036A89000F2000FA01F123EA0101EB
:1013700097FAA7F3B3FA83F39B0002FA03F30B4344
:101380002362E8E73346A7E7B05A000838B500F013
:101390000F021F4BC0F3031053F822500C46FEF708
:1013A000FBFF95FAA5F2B2FA82F35A000168032313
:1013B000934095FAA5F2B2FA82F20B405200D34064
:1013C000013B012B1AD8E31E022B436809D82B439B
:1013D000032C43601AD101222946BDE83840FFF7AB
:1013E00051BF23EA0503012C4360F4D0022C0BD03B
:1013F00029460022BDE83840FFF72FBF04F0FD0367
:10140000012BE8D0052CF1D10222E5E7052CEEE70F
:10141000B05A00084368094A9B0182B0D3581A6841
:10142000120706D5002201921A6801925A680192A9
:10143000019A1868C0F3401002B0704710080020ED
:101440004368034A9B01D3581868C0F3C010704723
:101450001008002003464068134A810110B41C683C
:101460008C5002EB80109A684260DA6882601A69D8
:10147000C2605A6902611A6A82610022C284C26132
:101480008284C2858285B3F91A20013205D10823EE
:101490005DF8044B436100F05ABDB3F918300133D5
:1014A0000CBF04230C23F3E7100800208160FFF732
:1014B000D1BF0000094B98420BD0A3F54C43984292
:1014C00009D003F55043984214BF4FF0FF3002207B
:1014D0007047002070470120704700BF0010014096
:1014E000F0B50E4685B04149044630461546FFF733
:1014F000B1FA3F4907462846FFF7ACFA014638469D
:10150000FFF786FA022E20600AD0032D08D0374953
:101510000220FFF79FFAB84244D13648FFF722F97C
:101520000127354B206898424FF000033CD10193CE
:10153000324B5A6C42F010025A645B6C03F0100399
:101540000193019BFFF7B6FF284960603046FFF723
:101550003DFA28462649FFF739FA701C03D00121CD
:101560003046FFF713FF691C03D001212846FFF71F
:101570000DFF00234FF41652C4E90223C4E90433DB
:101580002362268365832046FFF764FF5FB31C4B0D
:101590001C4801221A6021464C2205B0BDE8F040EB
:1015A00003F026BC0027BCE7174A90420FD002F593
:1015B00050429042C6D10393104B5A6C42F0200225
:1015C0005A645B6C03F020030393039BBAE7029316
:1015D0000A4B1A6C42F400321A641B6C03F4003399
:1015E0000293029BAEE705B0F0BD00BF685A000849
:1015F000205A0008F05A000800100140003802404C
:1016000058070020C40700200044004038B5456852
:1016100004462046FFF7FEFE0028FAD0AD01034B3A
:101620005B595868C0F3080038BD00BF100800209F
:1016300070B5466805460C462846FFF701FF0028AE
:10164000FAD0034BB601C4F308049B595C6070BD2B
:1016500010080020DFF830D0002103E00B4B5B586E
:10166000435004310A480B4B42189A42F6D30A4AB7
:1016700002E0002342F8043B084B9A42F9D300F001
:10168000A9FCFEF7ABFD704700800120045C000858
:10169000980100207006002070060020180A002023
:1016A000FEE7704708B50B4B1A6842F400721A60E7
:1016B0001A6842F480621A601A6842F480721A60F2
:1016C000032000F009F80F20FEF706FFFFF7E9FFFF
:1016D000002008BD003C02400749CA6822F4E062CD
:1016E0000302120403F4E063120C134343F0BF63DC
:1016F00043F40033CB60704700ED00E02DE9F34187
:10170000044618B9012002B0BDE8F0810368DD0786
:1017100010D4236898075BD423681A0700F19D80D2
:1017200023685B0700F1BB80A269002A40F01C819E
:101730000020E8E7A54B9A6802F00C02042A07D0C3
:101740009A6802F00C02082A0AD15A68510207D599
:101750009E4B1B689A03DCD56368002BD9D1D1E777
:101760006268B2F5803F11D11A6842F480321A6083
:10177000FEF7B8FE954E054633689B03C9D4FEF7C5
:10178000B1FE401B6428F7D90320BCE78F4DB2F5AA
:10179000A02F2B6807D143F480232B602B6843F4E0
:1017A00080332B60E4E723F480332B602B6823F431
:1017B00080232B60002ADBD1FEF794FE06462B68BF
:1017C0009F03A6D5FEF78EFE801B6428F7D9DBE7C2
:1017D0007E4B9A6812F00C0F07D09A6802F00C0248
:1017E000082A11D15B685E020ED4784B1A689507FF
:1017F00002D5E268012A85D11A68216922F0F8022F
:1018000042EAC1021A6087E7E268714BB2B1012275
:101810001A60FEF767FE6D4D06462B68980707D5E0
:101820002B68226923F0F80343EAC2032B6073E7B5
:10183000FEF758FE801B0228EFD9A5E71A60FEF7D5
:1018400051FE624E0546336899077FF565AFFEF796
:1018500049FE401B0228F6D996E762695D4B7AB1D2
:1018600001221A60FEF73EFE584E0546736F9F0731
:101870003FF556AFFEF736FE401B0228F6D983E748
:101880001A60FEF72FFE514E0546736F98077FF5DD
:1018900047AFFEF727FE401B0228F6D974E74B4BF3
:1018A0001A6C12F0805228D101921A6C42F08052C8
:1018B0001A641B6C03F080530193019B0127464D72
:1018C0002B68D9051BD5A368404D012B27D12B6F61
:1018D00043F001032B67FEF705FE3C4E054641F23F
:1018E0008838336F9B0739D5002F3FF41DAF374A37
:1018F000136C23F08053136416E70027DFE72B688F
:1019000043F480732B60FEF7EDFD06462B68DA0585
:10191000D9D4FEF7E7FD801B0228F7D934E7052B61
:1019200004D12B6F43F004032B67D0E72A6F22F01A
:1019300001022A672A6F22F004022A67002BCAD10B
:10194000FEF7D0FD41F2883806462B6F9807CBD5BD
:10195000FEF7C8FD801B4045F7D915E7FEF7C2FD2D
:10196000401B4045BDD90FE7184DAB6803F00C0391
:10197000082B3FF4C7AE194E0023022A336035D13D
:10198000FEF7B0FD07462B68990129D4D4E9073248
:101990001343626A43EA8213E26A43EA0263A26A79
:1019A0005208013A43EA02436B6001233360FEF7B9
:1019B00099FD064D04462B689A013FF5B9AEFEF736
:1019C00091FD001B0228F6D9DEE600BF0038024078
:1019D00000004742800E47420070004060004742CE
:1019E000FEF780FDC01B0228CDD9CDE6FEF77AFDBB
:1019F00004462B689B017FF59BAEFEF773FD001B31
:101A00000228F6D9C0E600BF134908B58B6803F079
:101A10000C03042B1CD0082B1CD14A684B68496866
:101A200013F4800314BF0D480D48C1F3881118BF8B
:101A3000002302F03F02A1FB000102F0EBFD064B88
:101A40005B68C3F3014301335B00B0FBF3F008BDF7
:101A50000248FCE70248FAE70038024000127A0028
:101A60000024F4002DE9F0410D46044610B9012090
:101A7000BDE8F081434B1A6802F00F028A4227D377
:101A8000226897072CD4D00740D43E4B1A6802F046
:101A90000F02AA4265D8226851076BD4130707D5F5
:101AA000394A2169936823F4604343EAC103936090
:101AB000FFF7AAFF344B354A9B68C3F30313D35C8B
:101AC000D840334B18600F20FEF706FD0020CFE70B
:101AD000CAB21A701B6803F00F038B42C7D1CFE75D
:101AE000294B12F0040F1EBF996841F4E051996030
:101AF000160742BF996841F4604199602249A06885
:101B00008B6823F0F00303438B60BCE762681E4BD5
:101B1000012A1CD11B6813F4003FA8D01A4EB368E9
:101B200023F003031343B360FEF7DCFC41F2883873
:101B30000746B368626803F00C03B3EB820FA4D0CE
:101B4000FEF7D0FCC01B4045F3D9032090E7911E5F
:101B500001291B6802D813F0007FDEE713F0020FA3
:101B6000DBE7EAB21A701B6803F00F03AB427FF4A5
:101B70007EAF90E70449E0688B6823F4E0530343A9
:101B80008B608BE7003C024000380240395B000864
:101B9000A4020020044B054A9B68C3F38223D35C54
:101BA000034A1068D840704700380240495B00087B
:101BB000A4020020044B054A9B68C3F34233D35C64
:101BC000034A1068D840704700380240495B00085B
:101BD000A40200200F2303600B4B9A6802F003025B
:101BE00042609A6802F0F00282609A6802F4E05261
:101BF000C2609B68DB0803F4E0530361034B1B687E
:101C000003F00F030B60704700380240003C0240B5
:101C100070470000224A036890420ED0B0F1804F16
:101C20000BD0A2F57C42904207D002F58062904230
:101C300003D002F58062904215D14A6823F0700308
:101C40001343174A904219D0B0F1804F16D0A2F535
:101C50007C42904212D002F5806290420ED002F592
:101C6000806290420AD00F4A904207D002F580620B
:101C7000904203D002F58062904203D1CA6823F4F7
:101C80004073134303608B68C3620B688362044B29
:101C9000984204BF0B69036301234361704700BF8F
:101CA000000001400040014010B50446A0B190F88A
:101CB000393003F0FF021BB980F83820FFF7A8FF86
:101CC0000223206884F83930211DFFF7A3FF012388
:101CD00084F83930002010BD0120FCE7036A10B5FC
:101CE00001248C4023EA04030362036A02FA01F12F
:101CF0000B43036210BD000010B5044601220068CA
:101D0000FFF7ECFF2368064A934202BF5A6C42F485
:101D100000425A641A6842F001021A60002010BDA5
:101D2000000001402DE9F8430368C1681A690446C0
:101D300022F440520A431A612569A268D968C06931
:101D40002A43656921F416412A4321F00C0102431C
:101D50000A43DA605A69A16922F440720A43B0F575
:101D6000004F5A61774A79D1934203D002F58062DD
:101D7000934243D1FFF71EFF636819254FF06408B3
:101D800068435B00B0FBF3F3B3FBF8F31F01FFF70D
:101D900011FF636868435B00B0FBF3F6FFF70AFFCF
:101DA000636868435B00B0FBF3F3B3FBF8F308FB35
:101DB0001363DB003233B3FBF8F35B0003F4F87614
:101DC000FFF7F8FE626868435200B0FBF2F9FFF7D4
:101DD000F1FE6368226868435B00B0FBF3F3B3FB7A
:101DE000F8F308FB1393DB003233B3FBF8F303F093
:101DF00007033B4433449360BDE8F883FFF7CAFE12
:101E0000636819254FF0640868435B00B0FBF3F387
:101E1000B3FBF8F31F01FFF7BDFE636868435B0087
:101E2000B0FBF3F6FFF7B6FE636868435B00B0FBF8
:101E3000F3F3B3FBF8F308FB1363DB003233B3FBBC
:101E4000F8F35B0003F4F876FFF7A4FE62686843DA
:101E50005200B0FBF2F9FFF79DFEBAE7934202D0C1
:101E6000394A93423FD1FFF7A5FE636819254FF029
:101E7000640868439B00B0FBF3F3B3FBF8F31E0167
:101E8000FFF798FE636868439B00B0FBF3F7FFF72A
:101E900091FE636868439B00B0FBF3F3B3FBF8F378
:101EA00008FB13731B013233B3FBF8F303F0F007A5
:101EB000FFF780FE626868439200B0FBF2F9FFF71B
:101EC00079FE6368226868439B00B0FBF3F3B3FBC1
:101ED000F8F308FB13931B013233B3FBF8F303F061
:101EE0000F033B4386E7FFF755FE636819254FF064
:101EF000640868439B00B0FBF3F3B3FBF8F31E01E7
:101F0000FFF748FE636868439B00B0FBF3F7FFF7F9
:101F100041FE636868439B00B0FBF3F3B3FBF8F347
:101F200008FB13731B013233B3FBF8F303F0F00724
:101F3000FFF730FE626868439200B0FBF2F9FFF7EA
:101F400029FEBEE70010014000140140704710B5A3
:101F5000044640B390F8393003F0FF021BB980F813
:101F60003820FFF7F3FF2268242384F83930D36840
:101F700023F40053D3602046FFF7D4FE23681A6988
:101F800022F490421A615A6922F02A025A61DA68F0
:101F900042F40052DA6000202023E06384F83930F4
:101FA00084F83A3010BD0120FCE77FB502210F23F1
:101FB000CDE901314FF48052002301A8CDE903326D
:101FC0000593FFF74FFDB0FA80F0400907B05DF8C8
:101FD00004FB00000F49D1F8883043F47003C1F8C6
:101FE00088300D4B1A68002042F001021A60986098
:101FF0001A6822F0847222F480321A60074A5A600A
:102000001A6822F480221A60D8604FF000638B6057
:10201000704700BF00ED00E000380240103000249F
:1020200010B58EB01D4B002400941A6C42F0805203
:102030001A641B6C1A4A03F080530093009B0194AE
:10204000136823F4404343F400431360136803F41C
:1020500040430193A042019B4FF0010302930CBF48
:102060004FF480334FF4A023039302224FF48003F4
:10207000CDE9082308214FF4A8730420CDE90A1301
:102080000723CDE90C0302A8FFF738FB18B9FFF7C7
:102090008CFF0EB010BD2046FBE700BF00380240A9
:1020A0000070004010B58EB000241A4B00941A6CDA
:1020B00042F080521A641B6C174A03F0805300935D
:1020C000009B0194136823F4404343F400431360DE
:1020D0001368039403F440430193019B0323029389
:1020E00001230593102306930A934FF4A871042348
:1020F000CDE90B130222072302A8CDE908240D9392
:10210000FFF7FCFA18B9FFF750FF0EB010BD2046DC
:10211000FBE700BF003802400070004008B5012016
:10212000FFF77EFF28B9FFF7BDFF10B90148FEF7A2
:1021300019FB08BD255B0008174A1849936803F08E
:102140000C03042B10B50DD0082B0DD0144B0B60D5
:10215000114B144A9B68C3F30313D25C0B68D34042
:102160000B6010BD104BF2E7546850685268630270
:10217000C2F388124CBF0C4B094B00F03F00B3FB7D
:10218000F0F35343044A5268C2F301420132520051
:10219000B3FBF2F3DBE700BF00380240A4020020EB
:1021A0000024F400395B000800127A00074B084A4B
:1021B00013601A69910707D5DA68920704D56FF0A2
:1021C00002021A61FFF720B8704700BF000C004000
:1021D000D408002000487047545B000830B589B02F
:1021E00001A903A8FFF7F6FCFFF7D4FC0023029334
:1021F0001E4B01901A6C1E4C42F008021A641A6CB5
:1022000002F008020292029A1A6A42F008021A6266
:102210001A6A22F008021A62069AA3F50B332360A9
:102220004FF0FF33E360134BF2B9B0FBF3F001382A
:10223000002560600E482561A5606561FFF734FDEB
:102240000D4B0E4A9B68C3F808210D4B4FF48022BA
:102250005A6007482946FFF74FFD2268D36823F0EC
:102260000203D36009B030BD4000DEE70038024011
:10227000D408002040420F0000ED00E0AD2100082E
:1022800000E100E004480268D36823F00203D36051
:102290000021FFF731BD00BFD4080020014B586A70
:1022A000704700BF000C0040054B1B686FF0020236
:1022B00058631A61DA6842F00202DA60704700BFC0
:1022C000D4080020064B1B686FF002021A615A699D
:1022D00042F002025A61DA6842F00202DA607047A4
:1022E000D4080020034B1A68D36823F00203D3609C
:1022F000704700BFD4080020024B1B686FF0020239
:102300001A617047D408002082B001900091009BB0
:10231000002B05D0019B9B68019A12681A6005E0AA
:10232000019B1A68019BDB6812041A6000BF02B0AF
:10233000704782B00190019B5B681A68019B1B6823
:102340001340002B01D0012300E00023184602B007
:10235000704700B583B001900B46ADF80230019B89
:102360001A460023136053609360D3601361536176
:102370009361019BBDF9022011461846FEF7FDFA54
:10238000019B184603B05DF804FB00B583B00190D3
:10239000019B1846FFF7CDFF0346184603B05DF8D2
:1023A00004FB00B583B001900B46ADF80230019BF1
:1023B0001A460023136053609360D3601361536126
:1023C0009361019BBDF9022011461846FEF7EAFA17
:1023D000019B184603B05DF804FB00B583B0019083
:1023E0000091019B00991846FFF78EFF00BF03B0D4
:1023F0005DF804FB10B584B001900B468DF80330F6
:10240000002303935849019A13465B0013449B0031
:102410000B4408331B78002B5BD19DF80330002B55
:1024200025D11C20FEF7CCFC03461C464E49019AE0
:1024300013465B0013449B000B44B3F9003019466C
:102440002046FFF786FF4849019A13465B00134474
:102450009B000B4404331C604349019A13465B0004
:1024600013449B000B44083301221A7028E09DF8A6
:102470000330012B24D11C20FEF7A2FC03461C468E
:102480003949019A13465B0013449B000B44B3F98E
:10249000003019462046FFF784FF3349019A13465E
:1024A0005B0013449B000B4404331C602E49019ACB
:1024B00013465B0013449B000B44083302221A703E
:1024C000019A13465B0013449B00274A134403936D
:1024D00045E02549019A13465B0013449B000B44D9
:1024E00008331B78012B0CD19DF80330002B08D149
:1024F000019A13465B0013449B001B4A1344039349
:102500002DE01949019A13465B0013449B000B44CC
:1025100008331B78022B0CD19DF80330012B08D116
:10252000019A13465B0013449B000F4A1344039324
:1025300015E00D49019A13465B0013449B000B44C0
:1025400008331B780A2B08D1019A13465B00134409
:102550009B00054A1344039301E000230393039B6C
:10256000184604B010BD00BFE002002000B585B0E1
:102570000190019B0293029B002B15D0029B1B7ABA
:102580000A2B08D1029B5B681846FDF7C5FF03467E
:102590008DF80F300BE0029B5B681846FFF7F5FEE5
:1025A00003468DF80F3002E000238DF80F309DF8C0
:1025B0000F30184605B05DF804FB00B585B00190FA
:1025C0000B468DF80330019B0393019B002B07D032
:1025D000039B5B689DF8032011461846FFF7FDFE3C
:1025E00000BF05B05DF804FB00B585B00190019B0C
:1025F0000393039B1B7A022B0BD1039B5B68002B7D
:1026000003D01C211846FEF7EDFB039B00221A7233
:102610000EE0039B1B7A012B0AD1039B5B68002B06
:1026200003D01C211846FEF7DDFB039B00221A7223
:1026300000BF05B05DF804FB00B583B08DED000B65
:102640004FF000024FF00003DDE9000101F090FFC0
:102650000346002B0BD036494FF000024FF0000329
:10266000C1E90023334B002283F8C32054E02CA39C
:10267000D3E90023DDE9000101F07AFF0346002BD6
:102680000BD02B494FF000024FF08043C1E90023EB
:10269000284B012283F8C3203EE04FF00002264B76
:1026A000DDE9000101F064FF0346002B0AD0204958
:1026B0004FF00002214BC1E900231E4B012283F899
:1026C000C32029E04FF000021D4BDDE9000101F0BD
:1026D0004FFF0346002B0AD015494FF00002194B5B
:1026E000C1E90023134B012283F8C32014E00EA399
:1026F000D3E90023DDE9000101F03AFF0346002B96
:1027000000D109E00A494FF000020F4BC1E9002354
:10271000084B012283F8C32000BF03B05DF804FB1F
:102720000000000000C072400000000000709740F0
:10273000E80900201809002000407F400000F03F19
:1027400000408F400000E03F0000D03F08B52A4B1A
:1027500093F8B630013B032B43D801A252F823F083
:10276000712700087B270008AB270008BF27000857
:10277000214B032283F8B6203BE01F4B93F8C33074
:10278000002B0DD11C4B012283F8B6201A4B93ED80
:10279000247BB0EE470AF0EE670AFFF74DFF28E012
:1027A000154B032283F8B62023E0134BD3F898305F
:1027B000062B1BD1104B042283F8B62016E00F4BDA
:1027C0005B7B002B14D10C4B022283F8B6200A4B02
:1027D00093ED247BB0EE470AF0EE670AFFF72CFF7B
:1027E00006E0054B002283F8B62002E000BF00E0BF
:1027F00000BF00BF08BD00BF18090020E809002085
:1028000000B583B0264B93F8B730012B02D0022BD2
:102810002CD039E0224BD3F89830122B08D1204B22
:10282000012283F8B7201E4B0022A3F8AE2030E02F
:102830001B4BB3F8AE30B3F5FA7F2AD3184BD3F85D
:1028400098300193164B0622C3F89820144B93F846
:10285000BE30002B01D0FFF779FF114A019BC2F86F
:1028600098300F4B022283F8B72012E00C4BD3F8BC
:102870009830122B0FD10A4B012283F8B720084B56
:102880000022A3F8AE2006E0054B002283F8B72013
:1028900002E000BF00E000BF00BF03B05DF804FB32
:1028A000180900200000000000B583B000238DF857
:1028B000073000238DF80730AD4B93F8B430013B5F
:1028C000042B00F2AC8101A252F823F0E1280008A9
:1028D0002B2900080D2A0008952A00081D2B000846
:1028E000A34BD3F89830022B40F09E81A14B5B7B29
:1028F000002B40F099819E4B042283F8B4209C4920
:1029000097A3D3E90023C1E92423994B1222C3F8EA
:102910009820974B93F8BF30002B01D0FFF770FF42
:10292000934B0222C3F898207EE1924B5B7B002BF5
:102930000CBF01230023DBB28DF806308C4BD3F89B
:102940009830022B1DD19DF80630002B19D0884BF2
:10295000032283F8B420864983A3D3E90023C1E985
:102960002423834B1222C3F89820814B93F8BF3065
:10297000002B01D0FFF744FF7D4B0222C3F89820C3
:1029800054E17B4BD3F89830072B1AD1784B0122B6
:1029900083F8B42076494FF000024FF00003C1E9FC
:1029A0002423734B1222C3F89820714B93F8BF3045
:1029B000002B01D0FFF724FF6D4B0722C3F89820AE
:1029C00034E16B4BD3F89830002B40F02F819DF809
:1029D0000630002B00F02A81654B052283F8B420D5
:1029E00063494FF00002644BC1E92423604B12227B
:1029F000C3F898205E4B93F8BF30002B01D0FFF74F
:102A0000FFFE5B4B0022C3F898200FE1584BD3F830
:102A10009830002B1DD1574B5B7B002B19D1544BA9
:102A2000022283F8B42052494FF00002534BC1E90F
:102A300024234F4B1222C3F898204D4B93F8BF30FC
:102A4000002B01D0FFF7DCFE494B0022C3F8982091
:102A5000EEE0474BD3F89830072B40F0E980444B29
:102A6000012283F8B42042494FF000024FF00003E6
:102A7000C1E924233E4B1222C3F898203C4B93F823
:102A8000BF30002B01D0FFF7BBFE394B0722C3F844
:102A90009820CDE0364BD3F89830072B03D1012393
:102AA0008DF80730C6E0334B5B7B002B0CBF012356
:102AB0000023DBB28DF806302D4BD3F89830022B73
:102AC0001DD19DF80630002B19D0294B052283F823
:102AD000B42027494FF00002274BC1E92423244B9F
:102AE0001222C3F89820224B93F8BF30002B01D05C
:102AF000FFF786FE1E4B0222C3F898209AE01C4B7B
:102B0000D3F89830002B40F095809DF80630002BCC
:102B100000F0908001238DF807308BE0144BD3F840
:102B20009830072B2CD1124B012283F8B420104986
:102B30004FF000024FF00003C1E924230C4B122296
:102B4000C3F898200A4B93F8BF30002B01D0FFF751
:102B500057FE074B0722C3F898206DE0AFF30080C3
:102B60000000000000C072400000000000709740AC
:102B700018090020E809002000407F4000408F40F5
:102B8000434B5B7B002B0CBF01230023DBB28DF892
:102B90000630404BD3F89830002B1DD19DF80630FD
:102BA000002B19D03B4B042283F8B420394936A3BB
:102BB000D3E90023C1E92423364B1222C3F898201D
:102BC000344B93F8BF30002B01D0FFF719FE314B87
:102BD0000022C3F898202FE02E4BD3F89830022B18
:102BE0002AD19DF80630002B26D02A4B022283F8EA
:102BF000B42028494FF00002274BC1E92423254B7C
:102C00001222C3F89820234B93F8BF30002B01D039
:102C1000FFF7F6FD1F4B0222C3F898200CE01D4B76
:102C2000002283F8B42008E000BF06E000BF04E003
:102C300000BF02E000BF00E000BF9DF80730002B9E
:102C40001DD0144B012283F8B42012494FF000022A
:102C50004FF00003C1E924230E4BD3F898300093C2
:102C60000C4B1222C3F898200A4B93F8BF30002B6C
:102C700001D0FFF7C5FD074A009BC2F8983000BF9E
:102C800003B05DF804FB00BF0000000000C072400C
:102C9000E80900201809002000408F4000000000D3
:102CA00000B583B0884B93F8B330012B02D0022BD0
:102CB00047D0F8E0854B00221A72834BD3F8983046
:102CC000042B40F0F580804B022283F8B3207F4B29
:102CD00001221A727C4B012283F8BC207A4B01221C
:102CE00083F8B42078494FF000024FF00003C1E9A7
:102CF0002423754B1222C3F89820734B93F8BF30EE
:102D0000002B01D0FFF77CFD6F4B0422C3F8982005
:102D10006D4B012283F8BD206B4B022283F8B52056
:102D2000694B012283F8BE20674B032283F8B6204B
:102D3000654B012283F8BF20634B022283F8B72042
:102D4000B6E0624B01221A725F4BD3F89830012B28
:102D500038D15D4B002283F8B7205B4B002283F80B
:102D6000BF20594B002283F8B620574B002283F82E
:102D7000BE20554B93F8B530012B07D1534B0022A1
:102D80005A72514B002283F8B52003E04E4B0022CB
:102D900083F8B5204C4B002283F8BD204A4B00221B
:102DA00083F8B420484B002283F8BC20464B012214
:102DB00083F8B320454B00221A729FED410BFFF7B9
:102DC0003BFC77E0404B93F8BC30002B01D0FFF781
:102DD0006BFD3D4B93F8BD30002B50D03A4B93F830
:102DE000B530012B02D0022B2FD043E0374B5B7B59
:102DF000002B04D0344B93F8C330002B07D1334B56
:102E000000225A72304B022283F8B52039E02E4B53
:102E1000B3F8AC30B3F57A7F33D32B4BD3F898307B
:102E20000193294B0722C3F89820274B93F8BC3015
:102E3000002B01D0FFF738FD234A019BC2F89830E0
:102E40009FED1F0BFFF7F8FB1BE0204B5B7B002B7C
:102E500019D01D4B93F8C330002B14D01A4B01220C
:102E600083F8B520184B0022A3F8AC20174B0122A1
:102E70005A7208E0144B002283F8B52004E000BF2A
:102E800002E000BF00E000BF0F4B93F8BE30002B04
:102E900001D0FFF75BFC0C4B93F8BF30002B09D03F
:102EA000FFF7AEFC06E0084B002283F8B32002E0F7
:102EB00000BF00E000BF00BF03B05DF804FB00BF2F
:102EC000000000000000000018090020E8090020B0
:102ED00000B583B0084BD3F898300193064B01221C
:102EE000C3F8982000F036F8034A019BC2F89830E6
:102EF00000BF03B05DF804FB1809002000B583B0E3
:102F0000084BD3F898300193064B0222C3F898205F
:102F100000F020F8034A019BC2F8983000BF03B0CC
:102F20005DF804FB1809002000B583B0084BD3F806
:102F300098300193064B0022C3F8982000F00AF85D
:102F4000034A019BC2F8983000BF03B05DF804FB50
:102F50001809002000B583B0B14B93F8B230012BB3
:102F600040F00C82AE4B93F8BB30002B01D0FFF742
:102F700097FEAB4B93F8C030002B00F09F80A84B1E
:102F800093F8B830032B00F08B80032B00F3918073
:102F9000012B02D0022B0ED08BE0A24B9B7A002B90
:102FA00040F08E809E4B022283F8B8209C4B00227A
:102FB000C3F8A02084E09C4BD3E908014FF0000245
:102FC0009A4B00F099FF02460B4643EC172BB0EEEC
:102FD000470AF0EE670A00F00FFF53EC102B104683
:102FE000194601F0F7FA034601938D4BD3F8A03050
:102FF000019A9A4213D88B4B9B7A002B0FD1884BA6
:10300000002283F8B820FFF763FF854B93F8B830B0
:10301000002B44D1824B032283F8B8203FE0804B41
:10302000D3F8A030019A9A421FD97E4B9B7A002B8D
:103030001BD07B4B002283F8B820794BD3F8983013
:103040000093774B0422C3F89820FFF783FF744A5C
:10305000009BC2F89830724B93F8B830002B1ED109
:103060006F4B012283F8B82019E06D4BD3F8A030E4
:10307000019A9A4226D86B4B9B7A002B22D0684B40
:10308000002283F8B820FFF723FF654B93F8B83090
:10309000002B17D1624B012283F8B82012E011E017
:1030A000604B9B7A002B0FD05D4B012283F8B82038
:1030B0000AE05B4B002283F8B82006E000BF04E082
:1030C00000BF02E000BF00E000BF554B93F8C130E5
:1030D000002B00F09F80524B93F8B930032B00F087
:1030E0008B80032B00F39180012B02D0022B0ED09A
:1030F0008BE04C4B1B7B002B40F08E80484B022218
:1031000083F8B920464B0022C3F8A42084E0464B44
:10311000D3E90A014FF00002444B00F0EDFE0246F5
:103120000B4643EC172BB0EE470AF0EE670A00F0AF
:1031300063FE53EC102B1046194601F04BFA034680
:103140000193374BD3F8A430019A9A4213D8354BE8
:103150001B7B002B0FD1324B002283F8B920FFF7E5
:10316000CDFE2F4B93F8B930002B44D12C4B0322CA
:1031700083F8B9203FE02A4BD3F8A430019A9A4251
:103180001FD9284B1B7B002B1BD0254B002283F81B
:10319000B920234BD3F898300093214B0522C3F874
:1031A0009820FFF7D7FE1E4A009BC2F898301C4BB0
:1031B00093F8B930002B1ED1194B012283F8B920A6
:1031C00019E0174BD3F8A430019A9A4226D8154B30
:1031D0001B7B002B22D0124B002283F8B920FFF773
:1031E0008DFE0F4B93F8B930002B17D10C4B0122F9
:1031F00083F8B92012E011E00A4B1B7B002B17D09B
:10320000074B012283F8B92012E0054B002283F816
:10321000B9200EE000BF0CE000BF0AE000BF08E0EC
:1032200018090020E8090020A802002000005940E9
:1032300000BF584B93F8C230002B00F09F80554BD5
:1032400093F8BA30032B00F08B80032B00F39180AE
:10325000012B02D0022B0ED08BE04F4BDB7A002BE0
:1032600040F08E804B4B022283F8BA20494B00225B
:10327000C3F8A82084E0494BD3E90C014FF00002C9
:10328000474B00F039FE02460B4643EC172BB0EEDD
:10329000470AF0EE670A00F0AFFD53EC102B104622
:1032A000194601F097F9034601933A4BD3F8A83039
:1032B000019A9A4213D8384BDB7A002B0FD1354B49
:1032C000002283F8BA20FFF72FFE324B93F8BA3072
:1032D000002B44D12F4B032283F8BA203FE02D4B23
:1032E000D3F8A830019A9A421FD92B4BDB7A002BD6
:1032F0001BD0284B002283F8BA20264BD3F89830F5
:103300000093244B0322C3F89820FFF723FE214AA1
:10331000009BC2F898301F4B93F8BA30002B1ED197
:103320001C4B012283F8BA2019E01A4BD3F8A830BD
:10333000019A9A4226D8184BDB7A002B22D0154BE3
:10334000002283F8BA20FFF7EFFD124B93F8BA3052
:10335000002B17D10F4B012283F8BA2012E011E0A5
:103360000D4BDB7A002B0FD00A4B012283F8BA20D9
:103370000AE0084B002283F8BA2006E000BF04E010
:1033800000BF02E000BF00E000BF00BF03B05DF877
:1033900004FB00BF18090020E8090020A802002053
:1033A0000000594010B582B0B14BD3E90401B14BD4
:1033B000D3E9062301F0DCF80346002B05D1AD4B21
:1033C000D3E90623AA49C1E90423A94BDB681846BF
:1033D000FFF7CCF803461A46A74B9A72A44BD3E9E1
:1033E0001601A44BD3E9002301F0C2F80346002BD9
:1033F00005D1A04BD3E900239D49C1E916239C4B7D
:103400005B6D1846FFF7B2F803461A469A4B5A739B
:10341000974BD3E91001974BD3E9022301F0A8F8A9
:103420000346002B05D1934BD3E902239049C1E910
:1034300010238F4BDB6B1846FFF798F803461A46AC
:103440008D4B1A738A4BD3E90A018A4BD3E90423C3
:1034500001F08EF80346002B05D1864BD3E90423F7
:103460008349C1E90A23824B5B6A1846FFF77EF85D
:1034700003461A46804BDA727D4B93F8C430002B1A
:1034800043D07B4BB3F8AC3040F2FE32934207D8C6
:10349000774BB3F8AC3001339AB2754BA3F8AC203C
:1034A000734BB3F8AE30B3F5FF7F07D8704BB3F86A
:1034B000AE3001339AB26E4BA3F8AE206C4BD3F80A
:1034C000A030B3F1FF3F06D0694BD3F8A0300133F1
:1034D000674AC2F8A030664BD3F8A430B3F1FF3F7F
:1034E00006D0634BD3F8A4300133614AC2F8A4304C
:1034F0005F4BD3F8A830B3F1FF3F06D05C4BD3F855
:10350000A83001335A4AC2F8A830594B012283F837
:10351000C420574B4FF0FF32C3F89820FFF71AFD35
:10352000534BD3F88C30544A127A11461846FFF7A1
:1035300044F84F4BD3F89C30B3F1FF3F06D04C4BCF
:10354000D3F89C3001334A4AC2F89C30484B93F878
:10355000B130002B0FD1464B012283F8B120444BF0
:10356000012283F8B020424B0022C3F89C200023A4
:103570008DF8073069E03E4B93F8B030012B38D11D
:1035800000238DF807303A4BD3F89C403A4BD3E9EF
:1035900000014FF00002394B00F0AEFC02460B4632
:1035A00043EC172BB0EE470AF0EE670A00F024FC5C
:1035B00053EC102B1046194601F00CF803469C42C0
:1035C00043D32D4BD3E900014FF000024FF000032D
:1035D00000F0CEFF0346002B37D1254B022283F8A3
:1035E000B020234B0022C3F89C2001238DF8073024
:1035F0002BE001238DF807301D4BD3F89C401E4B68
:10360000D3E900014FF000021C4B00F075FC0246AC
:103610000B4643EC172BB0EE470AF0EE670A00F0BA
:10362000EBFB53EC102B1046194600F0D3FF03467A
:103630009C420AD30E4B012283F8B0200C4B00228F
:10364000C3F89C2000238DF80730094BDB6F9DF8F1
:10365000072011461846FEF7B0FF054BDB6E064A01
:10366000527A11461846FEF7A8FF00BF02B010BDFF
:1036700018090020A8020020E80900200000594095
:1036800000B585B0B44B00221A6010220021B34867
:1036900001F0BCFBD0220021B14801F0B7FBB04BD8
:1036A00000221A70AE4B012283F8C820AD4BD3E93B
:1036B0000623AB49C1E90423A94B0393A84B01227C
:1036C0005A603823029300210298FEF793FE0246C7
:1036D000039BDA60A24B01221A72A14B002283F8ED
:1036E00048209F4B012283F8CB209E4BD3E9002337
:1036F0009B49C1E916239C4B0393994B0122DA6441
:103700003523029300210298FEF774FE0246039BC4
:10371000DA60934B012283F85020914B002283F80A
:1037200030208F4B012283F8CA208E4BD3E902232D
:103730008B49C1E910238D4B0393894B01225A63B6
:103740002E23029300210298FEF754FE0246039BAB
:10375000DA60834B012283F83820814B00221A76ED
:103760007F4B012283F8C9207E4BD3E904237C4997
:10377000C1E90A237E4B0393794B0122DA612F239F
:10378000029300210298FEF735FE0246039BDA60A1
:10379000734B012283F82020714B002283F8802094
:1037A0006F4B012283F8C720724B01936C4B0122AF
:1037B000C3F884200D23029301210298FEF71AFE1C
:1037C0000246019BDA60664B012283F88820644B35
:1037D000002283F87020624B012283F8C620664BDA
:1037E00001935F4B01225A670C2302930121029837
:1037F000FEF700FE0246019BDA60594B012283F876
:103800007820574B002283F86020554B012283F823
:10381000C5205A4B0193524B01225A660B23029347
:1038200001210298FEF7E6FD0246019BDA604C4B4F
:10383000012283F868204A4B0022C3F8A820484B95
:103840000022C3F8A020464B0022C3F8A420444B1A
:10385000002283F8BF20424B002283F8B720404B60
:103860000022A3F8AE203E4B002283F8BC203C4B44
:10387000002283F8B4203A4B002283F8BE20384B54
:10388000002283F8B620364B002283F8BD20344B4B
:10389000002283F8B520324B0022A3F8AC20304B35
:1038A000002283F8C3202E494FF000024FF000039E
:1038B000C1E9242329494FF000024FF00003C1E978
:1038C0000023264B00225A72254B002283F8C42085
:1038D000234B4FF0FF32C3F89820214B012283F88D
:1038E000B2201F4B012283F8BB201D4B012283F81D
:1038F000B3201A4B00221A729FED150BFEF79CFEA7
:10390000174B012283F8C020154B012283F8B82001
:10391000134B012283F8C120114B012283F8B920F7
:103920000F4B012283F8C2200D4B012283F8BA20ED
:103930000B4B0022C3F89C20094B002283F8B120D6
:10394000074B002283F8B02000BF05B05DF804FBF0
:1039500000000000000000005C070020E8090020D3
:1039600018090020A8020020600900204809002052
:1039700030090020980900208809002078090020DB
:1039800008B5504B1B78002B0FD14E4B01221A70FB
:103990004C4B5B68012B08D14A4B1B7A002B04D09F
:1039A000484BDB681846FEF71FFE464B93F848303D
:1039B000002B11D1434B012283F84820414BDB6C93
:1039C000012B09D13F4B93F85030002B04D03D4BD5
:1039D0005B6D1846FEF708FE3A4B93F83030002B2B
:1039E00011D1384B012283F83020364B5B6B012B11
:1039F00009D1344B93F83830002B04D0314BDB6BBA
:103A00001846FEF7F1FD2F4B1B7E002B10D12D4BDE
:103A100001221A762B4BDB69012B09D1294B93F834
:103A20002030002B04D0274B5B6A1846FEF7DCFDE4
:103A3000244B93F88030002B13D1224B012283F8C2
:103A40008020204BD3F88430012B0AD11D4B93F8F2
:103A50008830002B05D01B4BD3F88C301846FEF76E
:103A6000C3FD184B93F87030002B11D1154B012278
:103A700083F87020134B5B6F012B09D1114B93F826
:103A80007830002B04D00F4BDB6F1846FEF7ACFDEF
:103A90000C4B93F86030002B11D10A4B012283F8B4
:103AA0006020084B5B6E012B09D1064B93F8683000
:103AB000002B04D0034BDB6E1846FEF795FD00BFCC
:103AC00008BD00BF1809002008B50F4B1B785A1C11
:103AD000D1B20D4A1170002B09D00C4B01221A6093
:103AE000094B1B78013BDAB2074B1A700BE062B648
:103AF00000BFFFF757FC72B600BF034B1B78013BBA
:103B0000DAB2014B1A7008BD64070020600700207C
:103B100000B583B0254B0193254B0093254B002224
:103B20001A70254B00221A7001DFFDF7BBFD00F073
:103B300047F8FEF701FB214B1B6800221A60FFF7D4
:103B40009FFD9DED010A00F0B3F81C4B1B681B683C
:103B5000002B0CBF01230023DBB21A46164B1A7050
:103B600062B600BF15E0154B1B681B68002B14BF25
:103B700001230023DBB21A460E4B1A700D4B1B7843
:103B8000DBB2002B0CBF01230023DBB21A460A4B29
:103B90001A70094B1B78DBB2002BE4D1FFF7F0FE63
:103BA0000023184603B05DF804FB00BF0AD7233C8E
:103BB0000000A842F9090020F80900205C5B000819
:103BC00000BF704782B0034600918DF807309DF921
:103BD0000730002B0ADB009BDAB20C499DF9073055
:103BE0001201D2B20B4483F800230BE0009BDAB23F
:103BF00007499DF8073003F00F03043B1201D2B2CE
:103C00000B441A7600BF02B0704700BF00E100E02D
:103C100000ED00E000B583B00190019B013BB3F1E2
:103C2000807F01D301230FE0094A019B013B5360D0
:103C30000F214FF0FF30FFF7C5FF054B00229A60C0
:103C4000034B07221A600023184603B05DF804FBFB
:103C500010E000E008B5BFF34F8F00BFBFF36F8FD8
:103C600000BF0C4B1A680C4B1B689A4202D3094BDD
:103C700000221A60074B1B685A1C06490A60002B79
:103C800005D172B600BFFFF71FFF62B600BF00BFCD
:103C900008BD00BF000A0020FC090020034B5B6840
:103CA000024A43F08053536000BF704700ED00E0CC
:103CB00000B585B08DED010A224B1B6807EE903AE6
:103CC000B8EE677ADDED017A67EE277AFCEEE77AE7
:103CD00017EE903A0393039BB3F1807F18D3039BB5
:103CE00007EE903AB8EE677ADFED176AC7EE267AEC
:103CF000FCEEE77A17EE903A0133144A1360134B47
:103D00001B68039AB2FBF3F31846FFF783FF05E045
:103D10000E4B00221A600398FFF77CFF0C4B002229
:103D20001A600C4A0C4B1A600F216FF00400FFF769
:103D300049FF0F216FF00100FFF744FF00BF05B0FE
:103D40005DF804FBA4020020FFFF7F4BFC0900206C
:103D5000000A0020553C0008040A0020EFF3008010
:103D600001B5EFF3118003B41EF0100F08BFB0EEE1
:103D7000400A0A48006803B488B004A006904FF0D7
:103D8000807007906FF006008646704703BC80473E
:103D9000BFF36F8F00DFFEE700BF0000040A0020C2
:103DA0001EF0100F08BFB0EE400A1EF0040F0CBF4B
:103DB000EFF30880EFF30980816911F8020C10B16C
:103DC00001280DD00BE01EF0100F0CBF1AB008B088
:103DD00003BC80F3118803BC80F300880847FEE72A
:103DE0004EF61451CEF200010A6842F001020A6058
:103DF0007047F4E700BF00BF51EC100BF8B5C1F3FA
:103E00000A53A3F2FF35132D10EE106A0C4632DC74
:103E1000002D1EDB364F2F4101EA070303432FD04D
:103E200031A3D3E9002300F097F90022002300F02A
:103E3000C7FB48B1002C04DD4FF4801343FA05F5AD
:103E40002C4424EA070400262346324643EC102B78
:103E5000F8BD25A3D3E9002300F07EF9002200235A
:103E600000F0AEFB0028EFD0002C39DB264333D026
:103E7000204C0026E8E7332D05DDB5F5806F23D013
:103E800041EC100BF8BDA3F213434FF0FF37DF40B6
:103E90000742F5D014A3D3E9002300F05DF9002216
:103EA000002300F08DFB0028CED0002C09DD142D5E
:103EB00014D00123C5F1340503FA05F5AE1928BF66
:103EC000E41826EA0706BFE710EE102A0B4600F0BA
:103ED00043F941EC100BF8BD3446B5E70134F0E787
:103EE00000264FF00044AFE79C7500883CE4377E25
:103EF000FFFF0F000000F03F70B54FF0FF0C4CF4D7
:103F0000E06C1CEA11541DBF1CEA135594EA0C0F17
:103F100095EA0C0F00F0DEF82C4481EA030621EA52
:103F20004C5123EA4C5350EA013518BF52EA03358D
:103F300041F4801143F4801338D0A0FB02CE4FF03F
:103F40000005E1FB02E506F00042E0FB03E54FF06F
:103F50000006E1FB03569CF0000F18BF4EF0010E67
:103F6000A4F1FF04B6F5007F64F5407404D25FEA63
:103F70004E0E6D4146EB060642EAC62141EA555116
:103F80004FEAC52040EA5E504FEACE2EB4F1FD0C58
:103F900088BFBCF5E06F1ED8BEF1004F08BF5FEAD6
:103FA000500E50F1000041EB045170BD06F0004688
:103FB00046EA010140EA020081EA0301B4EB5C0435
:103FC000C2BFD4EB0C0541EA045170BD41F480112D
:103FD0004FF0000E013C00F3AB8014F1360FDEBF52
:103FE000002001F0004170BDC4F10004203C35DA2E
:103FF0000C341BDC04F11404C4F1200500FA05F3B1
:1040000020FA04F001FA05F240EA020001F0004251
:1040100021F0004110EBD37021FA04F642EB0601C7
:104020005EEA430E08BF20EAD37070BDC4F10C04F1
:10403000C4F1200500FA04F320FA05F001FA04F2B5
:1040400040EA020001F0004110EBD37041F10001A1
:104050005EEA430E08BF20EAD37070BDC4F12005AC
:1040600000FA05F24EEA020E20FA04F301FA05F214
:1040700043EA020321FA04F001F0004121FA04F2BC
:1040800020EA020000EBD3705EEA430E08BF20EA8C
:10409000D37070BD94F0000F0FD101F000464000C6
:1040A00041EB010111F4801F08BF013CF7D041EA48
:1040B000060195F0000F18BF704703F0004652004C
:1040C00043EB030313F4801F08BF013DF7D043EA1D
:1040D0000603704794EA0C0F0CEA135518BF95EAD3
:1040E0000C0F0CD050EA410618BF52EA4306D1D15A
:1040F00081EA030101F000414FF0000070BD50EA79
:10410000410606BF1046194652EA430619D094EA02
:104110000C0F02D150EA013613D195EA0C0F05D1EC
:1041200052EA03361CBF104619460AD181EA030140
:1041300001F0004141F0FE4141F470014FF00000F8
:1041400070BD41F0FE4141F4780170BD81F0004145
:1041500002E000BF83F0004330B54FEA41044FEA6C
:10416000430594EA050F08BF90EA020F1FBF54EA07
:10417000000C55EA020C7FEA645C7FEA655C00F0A3
:10418000E2804FEA5454D4EB5555B8BF6D420CDD74
:104190002C4480EA020281EA030382EA000083EAF7
:1041A000010180EA020281EA0303362D88BF30BD97
:1041B00011F0004F4FEA01314FF4801C4CEA1131ED
:1041C00002D0404261EB410113F0004F4FEA03334C
:1041D0004CEA133302D0524263EB430394EA050FD7
:1041E00000F0A780A4F10104D5F1200E0DDB02FA46
:1041F0000EFC22FA05F2801841F1000103FA0EF2DA
:10420000801843FA05F359410EE0A5F120050EF19F
:10421000200E012A03FA0EFC28BF4CF0020C43FAD0
:1042200005F3C01851EBE37101F0004507D54FF0DD
:10423000000EDCF1000C7EEB00006EEB0101B1F52D
:10424000801F1BD3B1F5001F0CD349085FEA300073
:104250004FEA3C0C04F101044FEA445212F5800F7E
:1042600080F09A80BCF1004F08BF5FEA500C50F11B
:10427000000041EB045141EA050130BD5FEA4C0CFE
:10428000404141EB0101013C28BFB1F5801FE9D25B
:1042900091F0000F04BF01460020B1FA81F308BF7E
:1042A0002033A3F10B03B3F120020CDA0C3208DD4A
:1042B00002F1140CC2F10C0201FA0CF021FA02F125
:1042C0000CE002F11402D8BFC2F1200C01FA02F195
:1042D00020FA0CFCDCBF41EA0C019040E41AA2BFBA
:1042E00001EB0451294330BD6FEA04041F3C1CDA82
:1042F0000C340EDC04F11404C4F1200220FA04F0A2
:1043000001FA02F340EA030021FA04F345EA03014B
:1043100030BDC4F10C04C4F1200220FA02F001FA0D
:1043200004F340EA0300294630BD21FA04F029468F
:1043300030BD94F0000F83F4801306BF81F4801128
:104340000134013D4EE77FEA645C18BF7FEA655C9B
:1043500029D094EA050F08BF90EA020F05D054EA6D
:10436000000C04BF1946104630BD91EA030F1EBF72
:104370000021002030BD5FEA545C05D14000494176
:1043800028BF41F0004130BD14F580043CBF01F569
:10439000801130BD01F0004545F0FE4141F470014F
:1043A0004FF0000030BD7FEA645C1ABF194610462A
:1043B0007FEA655C1CBF0B46024650EA013406BF2B
:1043C00052EA033591EA030F41F4002130BD00BFEA
:1043D00090F0000F04BF0021704730B54FF48064A7
:1043E00004F132044FF000054FF0000150E700BF28
:1043F00090F0000F04BF0021704730B54FF4806487
:1044000004F1320410F0004548BF40424FF0000173
:104410003EE700BF42004FEAE2014FEA31014FEAB6
:1044200002701FBF12F07F4393F07F4F81F0605105
:10443000704732F07F4208BF704793F07F4F04BF50
:1044400041F40021704730B54FF4607401F000452D
:1044500021F000411CE700BF50EA010208BF70478D
:1044600030B54FF000050AE050EA010208BF70477E
:1044700030B511F0004502D5404261EB41014FF4E7
:10448000806404F132045FEA915C3FF4D8AE4FF0EF
:1044900003025FEADC0C18BF03325FEADC0C18BFD2
:1044A000033202EBDC02C2F1200300FA03FC20FA23
:1044B00002F001FA03FE40EA0E0021FA02F1144470
:1044C000BDE600BF4FF0FF3C06E000BF4FF0010C1F
:1044D00002E000BF4FF0010C4DF804CD4FEA410C53
:1044E0007FEA6C5C4FEA430C18BF7FEA6C5C1BD020
:1044F00001B050EA410C0CBF52EA430C91EA030FA1
:1045000002BF90EA020F0020704710F1000F91EAFD
:10451000030F58BF994208BF90422CBFD8176FEACB
:10452000E37040F0010070474FEA410C7FEA6C5C99
:1045300002D150EA013C07D14FEA430C7FEA6C5CA0
:10454000D6D152EA033CD3D05DF8040B704700BFCC
:104550008446104662468C461946634600E000BF1A
:1045600001B5FFF7B7FF002848BF10F1000F01BDEC
:104570004DF808EDFFF7F4FF0CBF012000205DF8B7
:1045800008FB00BF4DF808EDFFF7EAFF34BF01203C
:1045900000205DF808FB00BF4DF808EDFFF7E0FFD5
:1045A00094BF012000205DF808FB00BF4DF808ED26
:1045B000FFF7CEFF94BF012000205DF808FB00BF8D
:1045C0004DF808EDFFF7C4FF34BF012000205DF86F
:1045D00008FB00BF4A0011D212F5001211D20DD50E
:1045E0006FF47873B3EB62520ED44FEAC12343F0F9
:1045F000004343EA505323FA02F070474FF00000A3
:10460000704750EA013002D14FF0FF3070474FF051
:104610000000704753B94AB9002908BF00281CBFE1
:104620004FF0FF314FF0FF3000F06EB9ADF1080CE4
:104630006DE904CE00F006F8DDF804E0DDE90223C0
:1046400004B070472DE9F047089D04468C46002BC6
:1046500040F083808A42174647D9B2FA82F242B1CB
:10466000C2F1200024FA00F09140974040EA010C8A
:1046700094404FEA1748230CBCFBF8F61FFA87FE5C
:1046800008FB16C143EA014306FB0EF1994209D922
:10469000FB1806F1FF3080F01981994240F2168133
:1046A000023E3B445B1AA4B2B3FBF8F008FB1033A4
:1046B00044EA034400FB0EFEA64509D93C1900F16B
:1046C000FF3380F00581A64540F2028102383C4468
:1046D00040EA0640A4EB0E0400261DB1D44000239E
:1046E000C5E900433146BDE8F08702B9FFDEB2FA02
:1046F00082F2002A50D1CB1B4FEA174E1FFA87F8DF
:104700000126B3FBFEFC210C0EFB1C3341EA0341E6
:1047100008FB0CF38B4207D979180CF1FF3002D259
:104720008B4200F2E9808446C91AA3B2B1FBFEF0C5
:104730000EFB101143EA014408FB00F8A04507D91D
:104740003C1900F1FF3302D2A04500F2D98018468F
:10475000A4EB080440EA0C40BFE78B4209D9002DC6
:1047600000F0B1800026C5E9000130463146BDE8C1
:10477000F087B3FA83F6002E4AD18B4202D38242ED
:1047800000F2B880841A61EB030101208C46002DF1
:10479000A8D0C5E9004CA5E7C2F1200320FA03F632
:1047A000974001FA02F04FEA174ED9403043030C0C
:1047B000B1FBFEF61FFA87F80EFB161143EA014320
:1047C00006FB08F1994204FA02F409D9FB1806F134
:1047D000FF3C80F08D80994240F28A80023E3B444B
:1047E0005B1A81B2B3FBFEF00EFB103341EA0341CA
:1047F00000FB08F38B4207D9791800F1FF3C73D214
:104800008B4271D902383944CB1A40EA064678E720
:10481000C6F1200C03FA06F422FA0CF31C4320FA2A
:104820000CF701FA06F34FEA144E21FA0CF11F437C
:104830003B0CB1FBFEF91FFA84F80EFB191143EA99
:10484000014109FB08FA8A4502FA06F200FA06F36A
:1048500008D9611809F1FF3048D28A4546D9A9F133
:1048600002092144A1EB0A01BFB2B1FBFEF00EFB2D
:10487000101147EA014700FB08F8B84507D9E719C6
:1048800000F1FF312ED2B8452CD90238274440EA36
:104890000940A7EB0807A0FB02894F45C6464946D9
:1048A0001AD317D05DB1B3EB0E0267EB010707FA1D
:1048B0000CFCF2404CEA0202F740C5E90027002652
:1048C0003146BDE8F0872E4628460BE70646E9E666
:1048D0001846FDE64345E5D2B8EB020E69EB04014C
:1048E0000138DFE70846D2E760468DE78146B9E741
:1048F000664675E730464AE7ACF1020C394413E7E7
:1049000002383C4424E700BF704700BF014B1868E1
:10491000704700BFF805002008B5074B044613B1E7
:104920000021AFF30080054B1868836A03B19847F4
:104930002046FCF72DFA00BF00000000C05B000815
:104940008A892DE9F041054610070C4658D44B687A
:10495000002B05DC0B6C002B02DC0020BDE8F08195
:10496000E66A002EF9D0002312F480522F682B60E3
:1049700032D0606DA3895A0705D56368C01A636B8E
:104980000BB1236CC01A00230246E66A216A28464E
:10499000B047431CA38906D129681D292CD82A4A6F
:1049A000CA40D60728D500226260D9042269226055
:1049B00004D5421C01D12B6803B96065616B2F607F
:1049C0000029CAD004F14403994202D0284600F0DD
:1049D00025FA00206063C1E7216A01232846B04719
:1049E000411CC7D12B68002BC4D01D2B01D0162B26
:1049F00001D12F60B1E7A38943F04003A381ADE764
:104A00000F69002FA9D093070E6808BF4B690F608C
:104A100018BF0023A6EB07088B60B8F1000F9CDDE0
:104A2000216AA66A43463A462846B047002806DC73
:104A3000A38943F04003A3814FF0FF308EE7074482
:104A4000A8EB0008E9E700BF0100402038B50B697A
:104A500005460C4613B90025284638BD18B18369B0
:104A60000BB900F099F8144B9C421BD16C68B4F957
:104A70000C30002BEFD0626ED00704D4990502D41D
:104A8000A06D00F04CF928462146FFF759FF636EF0
:104A9000DA070546E0D4A3899B05DDD4A06D00F0BC
:104AA0003FF9D9E7054B9C4201D1AC68DFE7044BE5
:104AB0009C4208BFEC68DAE7805B0008A05B000856
:104AC000605B0008014620B9044B0549186800F0F6
:104AD000E1B8044B1868FFF7B9BF00BFC05B00081E
:104AE0004D4A0008F8050020002310B50446C0E92F
:104AF0000033C0E90433836081814366C2818361EE
:104B0000194608225C3000F081F9054B6362054BC1
:104B1000A362054BE362054B2462236310BD00BF13
:104B2000B9520008DB52000813530008375300083D
:104B3000014900F0AFB800BF4D4A000870B54A1EE9
:104B4000682555430E4605F1740100F0B7F9044697
:104B500040B10021C0E900160C30A06005F16802E8
:104B600000F054F9204670BD014800F0D8B800BFED
:104B7000100A0020014800F0D3B800BF100A00203E
:104B8000014800F0CCB800BF0B0A0020014800F03B
:104B9000C7B800BF0B0A002010B50446FFF7F0FFAE
:104BA000A3691BB1BDE81040FFF7F0BFC4E91233A1
:104BB0002365134B134A1B68A262A34204BF01235F
:104BC000A361204600F020F86060204600F01CF849
:104BD000A060204600F018F80022E0600421606820
:104BE000FFF782FFA06801220921FFF77DFFE0683F
:104BF00002221221FFF778FF0123A361D2E700BF51
:104C0000C05B0008314B0008F8B50746FFF7ACFF62
:104C10001E4B1E68B36913B93046FFF7BDFF483617
:104C2000D6E90134013B03D533680BB33668F7E7A7
:104C3000B4F90C50D5B9164BE36004F15800656621
:104C400000F06CF8FFF796FFC4E90155C4E904557C
:104C50002560A5610822294604F15C0000F0D6F821
:104C6000C4E90D55C4E912552046F8BD6834D9E7AA
:104C700004213846FFF762FF044630600028D5D192
:104C8000FFF778FF0C233B60EEE700BFC05B000836
:104C90000100FFFF2DE9F8430646884600F148046D
:104CA0000027D4E90195B9F1010905D52468002C44
:104CB000F7D13846BDE8F883AB89012B07D9B5F9A0
:104CC0000E30013303D029463046C04707436835CC
:104CD000E9E7000070B50D4D0D4C641BA4100026D3
:104CE000A64209D10B4D0C4C00F056FD641BA410DC
:104CF0000026A64205D170BD55F8043B9847013601
:104D0000EEE755F8043B98470136F2E760060020CD
:104D1000600600206006002064060020704770478F
:104D200070470000024B0146186800F0C7B800BF8A
:104D3000F8050020024B0146186800F06FB800BF6C
:104D4000F805002000000000000000000000000046
:104D500001F0FF01102A2BDB10F0070F08D010F82C
:104D6000013B013A8B422DD010F0070F42B3F6D130
:104D7000F0B441EA012141EA014122F007047FF049
:104D800000070023F0E80256083C85EA010586EAA0
:104D9000010685FA47F5A3FA87F586FA47F6A5FADC
:104DA00087F68EB9EED1F0BC01F0FF0102F00702E8
:104DB00032B110F8013B013A83EA010313B1F8D193
:104DC0000020704701387047002D06BF3546033874
:104DD000073815F0010F07D1013015F4807F02BFAD
:104DE000013015F4C03F0130F0BC0138704700BFFE
:104DF0000A44914200F1FF3300D1704710B511F819
:104E0000014B03F8014F9142F9D110BD0244034612
:104E1000934200D1704703F8011BF9E737B5002929
:104E200048D051F8043C0190002BA1F10404B8BF14
:104E3000E418FBF7A3FE204A01981368154633B91E
:104E40006360146003B0BDE83040FBF79BBEA34233
:104E50000BD921686218934204BF1A685B686360CB
:104E600004BF521822602C60ECE71A465B680BB155
:104E7000A342FAD911685518A5420BD124682144E0
:104E80005418A3421160DDD11C685B685360214453
:104E90001160D7E702D90C230360D3E725686119B5
:104EA0008B4204BF19685B68636004BF49192160C5
:104EB0005460C7E703B030BD68070020F8B5CD1CCB
:104EC00025F0030508350C2D38BF0C25002D0646AE
:104ED00001DBA94203D90C2333600020F8BDFBF7A6
:104EE0004DFE21490A6814469CB9204F3B6823B9FE
:104EF0002146304600F0D0F938602946304600F0AF
:104F0000CBF9431C23D10C2333603046FBF73AFE28
:104F1000E3E723685B1B17D40B2B03D923601C44E6
:104F2000256004E06368A2420CBF0B60536030460A
:104F3000FBF728FE04F10B00231D20F00700C21A26
:104F4000CCD01B1AA350C9E722466468CCE7C41C26
:104F500024F00304A042E3D0211A304600F09CF96B
:104F60000130DDD1CFE700BF680700206C070020CB
:104F70002DE9F047164699468A680B69DDF82080CE
:104F80009342B8BF1346336091F8432007460C465E
:104F90000AB1013333602368990642BF3368023394
:104FA0003360256815F0060506D104F1190AE36897
:104FB00032689B1AAB4226DC94F84320131E226809
:104FC00018BF012392062BD404F143024946384608
:104FD000C04701301ED02368E568326803F006033D
:104FE000042B08BFAD1AA36822690CBF25EAE5753A
:104FF00000259342C4BF9B1AED1800261A34B5420F
:105000001AD1002008E00123524649463846C047DD
:10501000013003D14FF0FF30BDE8F0870135C6E71E
:10502000E1185A1C302081F84300224494F84510BE
:1050300082F843100233C7E7012322464946384627
:10504000C0470130E6D00136D9E700002DE9FF471F
:105050000C469146277E0C99782F80469A4604F19B
:10506000430207D8622F0AD8002F00F0D880582FAB
:1050700000F0A38004F1420684F842703AE0A7F100
:105080006303152BF6D801A050F823F0E550000873
:10509000F950000875500008755000087550000858
:1050A00075500008F9500008755000087550000848
:1050B0007550000875500008055200082951000875
:1050C000E751000875500008755000082752000885
:1050D00075500008295100087550000875500008E7
:1050E000EF5100080B681A1D1B680A6004F14206A4
:1050F00084F842300123A3E0256808682E0600F1F9
:1051000004030AD505680B60002D03DA2D236D42D8
:1051100084F843305E480A2319E015F0400F056813
:105120000B6018BF2DB2EFE70B682568181D0860EB
:10513000280601D51D6802E06906FBD51D88544884
:105140006F2F0CBF08230A23002184F843106668E0
:10515000A660002EA2BF216821F0040121600DB9D4
:10516000002E4DD01646B5FBF3F103FB1157C75D7A
:1051700006F8017D2F46BB420D46F4D9082B0BD112
:105180002368DF0708D5236961689942DEBF3023B1
:1051900006F8013C06F1FF36921B2261CDF800A013
:1051A0004B4603AA21464046FFF7E2FE01304CD1B0
:1051B0004FF0FF3004B0BDE8F087354884F8457003
:1051C00023680E681F0656F8045B0E6014D5D907D5
:1051D00044BF43F0200323601DB9236823F020035C
:1051E00023601023B0E7236843F020032360782373
:1051F000284884F84530E3E75E0648BFADB2E6E7ED
:105200001646BBE70B68266860691D1D0D603506F4
:105210001B6801D5186002E07106FBD518800023D9
:1052200023611646BAE70B681A1D0A601E68626899
:1052300000213046FFF78CFD08B1801B6060636879
:105240002361002384F84330A8E7236932464946A6
:105250004046D0470130ABD023689B0713D4E068A9
:10526000039B9842B8BF1846A4E70123324649463B
:105270004046D04701309BD00135E36803995B1A63
:10528000AB42F2DCEBE7002504F11906F5E700BFBD
:10529000C45B0008D55B000838B5064D0023044602
:1052A00008462B60FBF750FC431C02D12B6803B16E
:1052B000236038BD140A002010B50C46B1F90E1059
:1052C00000F050FA0028ABBF636DA3891B1823F4CC
:1052D0008053ACBF6365A38110BD2DE9F0411F462B
:1052E0008B89DB0505460C46164605D5B1F90E102F
:1052F0000223002200F088F8A389B4F90E1023F4E9
:105300008053A38132463B462846BDE8F04100F079
:1053100059B810B50C46B1F90E1000F075F8431CE1
:10532000A38915BF606523F4805343F48053A381A0
:1053300018BFA38110BDB1F90E1000F055B8034697
:1053400013F8012B002AFBD1181A0138704730B529
:10535000141E05469BB0184605DA8B232B604FF0D0
:10536000FF301BB030BD4FF40273ADF80C3014BFEA
:1053700004F1FF332346029305934FF6FF73009128
:105380000491ADF80E3002461E9B6946284600F097
:10539000E9F8431CBCBF8B232B60002CE1D0009BA1
:1053A00000221A70DDE7000007B5009313460A4695
:1053B000014603480068FFF7CAFF03B05DF804FB2D
:1053C000F805002038B5074D04460846114600226E
:1053D0002A601A46FBF76DFC431C02D12B6803B10F
:1053E000236038BD140A002038B5064D002304465A
:1053F00008462B60FBF740FC431C02D12B6803B12D
:10540000236038BD140A002038B5074D044608460D
:10541000114600222A601A46FBF7A0FC431C02D169
:105420002B6803B1236038BD140A0020884210B5F0
:1054300001EB020402D98442234607D8431EA1424D
:1054400008D011F8012B03F8012FF8E702440146B8
:105450008A4200D110BD13F8014D02F8014DF7E763
:10546000F8B5074614460E4621B9BDE8F840114686
:10547000FFF724BD22B9FFF7D1FC25462846F8BD29
:1054800000F082F9A0420FD221463846FFF716FD00
:1054900005460028F2D031462246FFF7A9FC3146E6
:1054A0003846FFF7BBFCE9E73546E7E72DE9F0476B
:1054B0008E689E4282460C4690461F4638D88A899E
:1054C00012F4906F32D025680969A5EB010965696E
:1054D00005EB450505EBD57501334B446D109D4239
:1054E00038BF1D46530531D52946FFF7E7FC064670
:1054F00050B90C23CAF80030A38943F04003A381BC
:105500004FF0FF30BDE8F08721694A46FFF770FC95
:10551000A38923F4906343F08003A381266165612E
:105520004E44A5EB09052660A5603E46BE4200D963
:105530003E46324620684146FFF778FFA36822685E
:105540009B1B3244A36022600020DBE72A46FFF762
:1055500087FF06460028E1D121695046FFF75EFC2F
:10556000C7E700002DE9F04F98468B891B069DB0D8
:1055700007460D4614460ED50B6963B94021FFF767
:105580009DFC2860286120B90C233B604FF0FF3060
:10559000D1E040236B610023099320238DF829304B
:1055A000CDF80C803023DFF8A8818DF82A304FF039
:1055B000010923469A4613F8012B0AB1252AF9D18D
:1055C000BAEB040B0BD05B46224629463846FFF760
:1055D0006DFF013000F0AA80099A5A4409929AF8A6
:1055E0000030002B00F0A28000234FF0FF32CDE905
:1055F00005230AF1010A049307938DF853301A9397
:105600005446052214F8011B5148FFF7A1FB049AE8
:10561000D8B9D00644BF20238DF85330110744BFBA
:105620002B238DF853309AF800302A2B15D0079A87
:10563000544600204FF00A0C214611F8013B303B44
:10564000092B4ED9B0B1079214E0A0EB080309FA78
:1056500003F313430493A246D2E7039B191D1B686F
:105660000391002BBBBF5B4242F0020207930793FA
:10567000B8BF049223782E2B0CD163782A2B35D116
:10568000039B1A1D1B680392002BB8BF4FF0FF331A
:1056900002340593DFF8C8A0217803225046FFF7B3
:1056A00057FB40B14023A0EB0A0003FA00F0049B33
:1056B00003430134049314F8011B26488DF8281085
:1056C0000622FFF745FB002838D0234B1BBB039B6A
:1056D000073323F0070308330393099B33440993EB
:1056E00067E70CFB02320C460120A5E700230134DA
:1056F000059319464FF00A0C204610F8012B303A5A
:10570000092A03D9002BC5D00591C3E70CFB012161
:1057100004460123F0E703AB00932A460F4B04A98C
:105720003846AFF30080421C0646D6D1AB895B06F3
:105730003FF52CAF09981DB0BDE8F08F03AB009387
:105740002A46064B04A93846FFF780FCEBE700BF6A
:10575000E65B0008F05B000800000000AD540008A4
:10576000EC5B000838B5074D044608461146002298
:105770002A601A46FBF7C9FA431C02D12B6803B111
:10578000236038BD140A002051F8043C181F002B78
:10579000BCBF0B58C0187047F8B500BFF8BC08BCB8
:1057A0009E467047F8B500BFF8BC08BC9E467047DF
:1057B00050696E6D6170206572726F723A207772F7
:1057C0006F6E6720706F7274206E756D6265722ED9
:1057D000002E2E2E0A000A52252D34643A20253040
:1057E000386C58000A53502020203A202530386C5D
:1057F000580A4C522020203A202530386C580A5044
:10580000432020203A202530386C580A78505352D3
:10581000203A202530386C580A50535020203A2026
:105820002530386C580A4D535020203A2025303806
:105830006C58000A43505549443A202530386C587A
:10584000000A48465352203A202530386C580A4DF9
:105850004D4653523A202530386C580A424653522E
:10586000203A202530386C580A55465352203A20A9
:105870002530386C580A44465352203A2025303897
:105880006C580A41465352203A202530386C580053
:105890000A4D4D4641523A202530386C58000A4294
:1058A000464152203A202530386C58000A4D6F642A
:1058B00065203A20546872656164000A5072697606
:1058C000203A2055736572000A50726976203A209A
:1058D00050726976696C65676564000A4D6F64652E
:1058E000203A2048616E646C6572000A53746163EB
:1058F0006B3A20505350000A537461636B3A204D49
:105900005350000A2B2B204D6265644F5320466193
:10591000756C742048616E646C6572202B2B0A0ACA
:105920004661756C74547970653A20004D656D4D13
:10593000616E6167654661756C740042757346619E
:10594000756C740055736167654661756C740048C9
:105950006172644661756C74000A0A436F6E746507
:1059600078743A000A0A2D2D204D6265644F532049
:105970004661756C742048616E646C6572202D2DD3
:105980000A0A004661756C742065786365707469F5
:105990006F6E000070070020000000000000000093
:1059A000910A0008E90A0008F50A0008950A0008AB
:1059B0007D0A00088D0A000821030008890A0008F2
:1059C000250300082F030008830A00083903000894
:1059D0003F030008450300084B030008510300087B
:1059E0005D0300086103000867030008B90A0008A6
:1059F0006D030008FC5900081807002085220008E4
:105A00009D220008E5220008F9220008A9220008CA
:105A1000C5220008FF110008D52100080000000081
:105A20000300000000440040D21F00000A000000F4
:105A300000100140D21F00000C00000000140140C3
:105A4000D22300001700000000100140D21F000008
:105A50002700000000140140D2230000FFFF0000D7
:105A6000FFFFFFFF000000000200000000440040B4
:105A7000D21F00000900000000100140D21F0000EA
:105A80000B00000000140140D223000016000000AB
:105A900000100140D21F0000260000000014014049
:105AA000D2230000FFFF0000FFFFFFFF0000000007
:105AB00001000000020000000400000008000000D7
:105AC00010000000200000004000000080000000E6
:105AD00000010000000200000004000000080000B7
